{"abi":[{"type":"function","name":"increment","inputs":[],"outputs":[],"stateMutability":"nonpayable"},{"type":"function","name":"number","inputs":[],"outputs":[{"name":"","type":"uint256","internalType":"uint256"}],"stateMutability":"view"},{"type":"function","name":"setNumber","inputs":[{"name":"newNumber","type":"uint256","internalType":"uint256"}],"outputs":[],"stateMutability":"nonpayable"},{"type":"event","name":"NumberIncremented","inputs":[{"name":"newValue","type":"uint256","indexed":false,"internalType":"uint256"}],"anonymous":false},{"type":"event","name":"NumberSet","inputs":[{"name":"newValue","type":"uint256","indexed":false,"internalType":"uint256"}],"anonymous":false}],"bytecode":{"object":"0x6080604052348015600e575f5ffd5b506102508061001c5f395ff3fe608060405234801561000f575f5ffd5b506004361061003f575f3560e01c80633fb5c1cb146100435780638381f58a1461005f578063d09de08a1461007d575b5f5ffd5b61005d60048036038101906100589190610153565b610087565b005b6100676100c7565b604051610074919061018d565b60405180910390f35b6100856100cc565b005b805f819055507f9ec8254969d1974eac8c74afb0c03595b4ffe0a1d7ad8a7f82ed31b9c8542591816040516100bc919061018d565b60405180910390a150565b5f5481565b5f5f8154809291906100dd906101d3565b91905055507f209c6035516d19d8e68fcdb2bf5bd0a95b70e35f6ca85925c34b9cdfdd7139605f54604051610112919061018d565b60405180910390a1565b5f5ffd5b5f819050919050565b61013281610120565b811461013c575f5ffd5b50565b5f8135905061014d81610129565b92915050565b5f602082840312156101685761016761011c565b5b5f6101758482850161013f565b91505092915050565b61018781610120565b82525050565b5f6020820190506101a05f83018461017e565b92915050565b7f4e487b71000000000000000000000000000000000000000000000000000000005f52601160045260245ffd5b5f6101dd82610120565b91507fffffffffffffffffffffffffffffffffffffffffffffffffffffffffffffffff820361020f5761020e6101a6565b5b60018201905091905056fea264697066735822122046c863e9106b799250a60f57988fa7e244751ef465b57abfa82fd62d6790efc964736f6c634300081c0033","linkReferences":{}},"methodIdentifiers":{"increment()":"d09de08a","number()":"8381f58a","setNumber(uint256)":"3fb5c1cb"},"id":19}