{"abi":[{"type":"constructor","inputs":[],"stateMutability":"nonpayable"},{"type":"function","name":"owner","inputs":[],"outputs":[{"name":"","type":"address","internalType":"address"}],"stateMutability":"view"},{"type":"function","name":"unsafeTransfer","inputs":[{"name":"to","type":"address","internalType":"address"}],"outputs":[],"stateMutability":"nonpayable"},{"type":"function","name":"withdraw","inputs":[{"name":"amount","type":"uint256","internalType":"uint256"}],"outputs":[],"stateMutability":"nonpayable"}],"bytecode":{"object":"0x6080604052348015600e575f5ffd5b503360015f6101000a81548173ffffffffffffffffffffffffffffffffffffffff021916908373ffffffffffffffffffffffffffffffffffffffff1602179055506103ee8061005c5f395ff3fe608060405234801561000f575f5ffd5b506004361061003f575f3560e01c806312e7a655146100435780632e1a7d4d1461005f5780638da5cb5b1461007b575b5f5ffd5b61005d60048036038101906100589190610266565b610099565b005b610079600480360381019061007491906102c4565b6100b2565b005b6100836101c1565b60405161009091906102fe565b60405180910390f35b6100a16101e6565b5f5f8251602084015f865af1505050565b805f5f3373ffffffffffffffffffffffffffffffffffffffff1673ffffffffffffffffffffffffffffffffffffffff1681526020019081526020015f205410156100fa575f5ffd5b5f3373ffffffffffffffffffffffffffffffffffffffff168260405161011f90610344565b5f6040518083038185875af1925050503d805f8114610159576040519150601f19603f3d011682016040523d82523d5f602084013e61015e565b606091505b505090508061016b575f5ffd5b815f5f3373ffffffffffffffffffffffffffffffffffffffff1673ffffffffffffffffffffffffffffffffffffffff1681526020019081526020015f205f8282546101b69190610385565b925050819055505050565b60015f9054906101000a900473ffffffffffffffffffffffffffffffffffffffff1681565b6040518060200160405280600190602082028036833780820191505090505090565b5f5ffd5b5f73ffffffffffffffffffffffffffffffffffffffff82169050919050565b5f6102358261020c565b9050919050565b6102458161022b565b811461024f575f5ffd5b50565b5f813590506102608161023c565b92915050565b5f6020828403121561027b5761027a610208565b5b5f61028884828501610252565b91505092915050565b5f819050919050565b6102a381610291565b81146102ad575f5ffd5b50565b5f813590506102be8161029a565b92915050565b5f602082840312156102d9576102d8610208565b5b5f6102e6848285016102b0565b91505092915050565b6102f88161022b565b82525050565b5f6020820190506103115f8301846102ef565b92915050565b5f81905092915050565b50565b5f61032f5f83610317565b915061033a82610321565b5f82019050919050565b5f61034e82610324565b9150819050919050565b7f4e487b71000000000000000000000000000000000000000000000000000000005f52601160045260245ffd5b5f61038f82610291565b915061039a83610291565b92508282039050818111156103b2576103b1610358565b5b9291505056fea2646970667358221220ec7edbd350b00795e7c9dd8ef364c6a7923fe1e946e03c0a4734c7b7b35a0abb64736f6c634300081c0033","linkReferences":{}},"methodIdentifiers":{"owner()":"8da5cb5b","unsafeTransfer(address)":"12e7a655","withdraw(uint256)":"2e1a7d4d"},"id":20}